{
  "contractName": "DecentralizedStorage",
  "abi": [
    {
      "anonymous": false,
      "inputs": [
        {
          "indexed": false,
          "internalType": "uint256",
          "name": "fileId",
          "type": "uint256"
        },
        {
          "indexed": false,
          "internalType": "string",
          "name": "hash",
          "type": "string"
        },
        {
          "indexed": false,
          "internalType": "string",
          "name": "fileName",
          "type": "string"
        },
        {
          "indexed": false,
          "internalType": "string",
          "name": "fileType",
          "type": "string"
        },
        {
          "indexed": false,
          "internalType": "uint256",
          "name": "fileSize",
          "type": "uint256"
        },
        {
          "indexed": false,
          "internalType": "address",
          "name": "uploader",
          "type": "address"
        }
      ],
      "name": "FileUploaded",
      "type": "event"
    },
    {
      "inputs": [],
      "name": "fileCount",
      "outputs": [
        {
          "internalType": "uint256",
          "name": "",
          "type": "uint256"
        }
      ],
      "stateMutability": "view",
      "type": "function"
    },
    {
      "inputs": [
        {
          "internalType": "uint256",
          "name": "",
          "type": "uint256"
        }
      ],
      "name": "files",
      "outputs": [
        {
          "internalType": "string",
          "name": "hash",
          "type": "string"
        },
        {
          "internalType": "string",
          "name": "fileName",
          "type": "string"
        },
        {
          "internalType": "string",
          "name": "fileType",
          "type": "string"
        },
        {
          "internalType": "uint256",
          "name": "fileSize",
          "type": "uint256"
        },
        {
          "internalType": "address",
          "name": "uploader",
          "type": "address"
        }
      ],
      "stateMutability": "view",
      "type": "function"
    },
    {
      "inputs": [
        {
          "internalType": "string",
          "name": "_hash",
          "type": "string"
        },
        {
          "internalType": "string",
          "name": "_fileName",
          "type": "string"
        },
        {
          "internalType": "string",
          "name": "_fileType",
          "type": "string"
        },
        {
          "internalType": "uint256",
          "name": "_fileSize",
          "type": "uint256"
        }
      ],
      "name": "uploadFile",
      "outputs": [],
      "stateMutability": "nonpayable",
      "type": "function"
    }
  ],
  "bytecode": "0x608060405234801561000f575f80fd5b50610e3d8061001d5f395ff3fe608060405234801561000f575f80fd5b506004361061003f575f3560e01c806343953519146100435780636ccc20f014610061578063f4c714b41461007d575b5f80fd5b61004b6100b1565b60405161005891906104fe565b60405180910390f35b61007b6004803603810190610076919061068e565b6100b7565b005b61009760048036038101906100929190610746565b610304565b6040516100a895949392919061082a565b60405180910390f35b60015481565b5f8451116100fa576040517f08c379a00000000000000000000000000000000000000000000000000000000081526004016100f1906108da565b60405180910390fd5b5f83511161013d576040517f08c379a000000000000000000000000000000000000000000000000000000000815260040161013490610942565b60405180910390fd5b5f825111610180576040517f08c379a0000000000000000000000000000000000000000000000000000000008152600401610177906109aa565b60405180910390fd5b5f81116101c2576040517f08c379a00000000000000000000000000000000000000000000000000000000081526004016101b990610a38565b60405180910390fd5b60015f8154809291906101d490610a83565b91905055506040518060a001604052808581526020018481526020018381526020018281526020013373ffffffffffffffffffffffffffffffffffffffff168152505f8060015481526020019081526020015f205f820151815f01908161023b9190610cc4565b5060208201518160010190816102519190610cc4565b5060408201518160020190816102679190610cc4565b50606082015181600301556080820151816004015f6101000a81548173ffffffffffffffffffffffffffffffffffffffff021916908373ffffffffffffffffffffffffffffffffffffffff1602179055509050507f2d593ba9b4e83f2164b0c8fbb7976324d796c24393fc347bf399878774abf4ec60015485858585336040516102f696959493929190610d93565b60405180910390a150505050565b5f602052805f5260405f205f91509050805f01805461032290610af7565b80601f016020809104026020016040519081016040528092919081815260200182805461034e90610af7565b80156103995780601f1061037057610100808354040283529160200191610399565b820191905f5260205f20905b81548152906001019060200180831161037c57829003601f168201915b5050505050908060010180546103ae90610af7565b80601f01602080910402602001604051908101604052809291908181526020018280546103da90610af7565b80156104255780601f106103fc57610100808354040283529160200191610425565b820191905f5260205f20905b81548152906001019060200180831161040857829003601f168201915b50505050509080600201805461043a90610af7565b80601f016020809104026020016040519081016040528092919081815260200182805461046690610af7565b80156104b15780601f10610488576101008083540402835291602001916104b1565b820191905f5260205f20905b81548152906001019060200180831161049457829003601f168201915b505050505090806003015490806004015f9054906101000a900473ffffffffffffffffffffffffffffffffffffffff16905085565b5f819050919050565b6104f8816104e6565b82525050565b5f6020820190506105115f8301846104ef565b92915050565b5f604051905090565b5f80fd5b5f80fd5b5f80fd5b5f80fd5b5f601f19601f8301169050919050565b7f4e487b71000000000000000000000000000000000000000000000000000000005f52604160045260245ffd5b61057682610530565b810181811067ffffffffffffffff8211171561059557610594610540565b5b80604052505050565b5f6105a7610517565b90506105b3828261056d565b919050565b5f67ffffffffffffffff8211156105d2576105d1610540565b5b6105db82610530565b9050602081019050919050565b828183375f83830152505050565b5f610608610603846105b8565b61059e565b9050828152602081018484840111156106245761062361052c565b5b61062f8482856105e8565b509392505050565b5f82601f83011261064b5761064a610528565b5b813561065b8482602086016105f6565b91505092915050565b61066d816104e6565b8114610677575f80fd5b50565b5f8135905061068881610664565b92915050565b5f805f80608085870312156106a6576106a5610520565b5b5f85013567ffffffffffffffff8111156106c3576106c2610524565b5b6106cf87828801610637565b945050602085013567ffffffffffffffff8111156106f0576106ef610524565b5b6106fc87828801610637565b935050604085013567ffffffffffffffff81111561071d5761071c610524565b5b61072987828801610637565b925050606061073a8782880161067a565b91505092959194509250565b5f6020828403121561075b5761075a610520565b5b5f6107688482850161067a565b91505092915050565b5f81519050919050565b5f82825260208201905092915050565b5f5b838110156107a857808201518184015260208101905061078d565b5f8484015250505050565b5f6107bd82610771565b6107c7818561077b565b93506107d781856020860161078b565b6107e081610530565b840191505092915050565b5f73ffffffffffffffffffffffffffffffffffffffff82169050919050565b5f610814826107eb565b9050919050565b6108248161080a565b82525050565b5f60a0820190508181035f83015261084281886107b3565b9050818103602083015261085681876107b3565b9050818103604083015261086a81866107b3565b905061087960608301856104ef565b610886608083018461081b565b9695505050505050565b7f46696c65206861736820697320726571756972656400000000000000000000005f82015250565b5f6108c460158361077b565b91506108cf82610890565b602082019050919050565b5f6020820190508181035f8301526108f1816108b8565b9050919050565b7f46696c65206e616d6520697320726571756972656400000000000000000000005f82015250565b5f61092c60158361077b565b9150610937826108f8565b602082019050919050565b5f6020820190508181035f83015261095981610920565b9050919050565b7f46696c65207479706520697320726571756972656400000000000000000000005f82015250565b5f61099460158361077b565b915061099f82610960565b602082019050919050565b5f6020820190508181035f8301526109c181610988565b9050919050565b7f46696c652073697a652073686f756c642062652067726561746572207468616e5f8201527f207a65726f000000000000000000000000000000000000000000000000000000602082015250565b5f610a2260258361077b565b9150610a2d826109c8565b604082019050919050565b5f6020820190508181035f830152610a4f81610a16565b9050919050565b7f4e487b71000000000000000000000000000000000000000000000000000000005f52601160045260245ffd5b5f610a8d826104e6565b91507fffffffffffffffffffffffffffffffffffffffffffffffffffffffffffffffff8203610abf57610abe610a56565b5b600182019050919050565b7f4e487b71000000000000000000000000000000000000000000000000000000005f52602260045260245ffd5b5f6002820490506001821680610b0e57607f821691505b602082108103610b2157610b20610aca565b5b50919050565b5f819050815f5260205f209050919050565b5f6020601f8301049050919050565b5f82821b905092915050565b5f60088302610b837fffffffffffffffffffffffffffffffffffffffffffffffffffffffffffffffff82610b48565b610b8d8683610b48565b95508019841693508086168417925050509392505050565b5f819050919050565b5f610bc8610bc3610bbe846104e6565b610ba5565b6104e6565b9050919050565b5f819050919050565b610be183610bae565b610bf5610bed82610bcf565b848454610b54565b825550505050565b5f90565b610c09610bfd565b610c14818484610bd8565b505050565b5b81811015610c3757610c2c5f82610c01565b600181019050610c1a565b5050565b601f821115610c7c57610c4d81610b27565b610c5684610b39565b81016020851015610c65578190505b610c79610c7185610b39565b830182610c19565b50505b505050565b5f82821c905092915050565b5f610c9c5f1984600802610c81565b1980831691505092915050565b5f610cb48383610c8d565b9150826002028217905092915050565b610ccd82610771565b67ffffffffffffffff811115610ce657610ce5610540565b5b610cf08254610af7565b610cfb828285610c3b565b5f60209050601f831160018114610d2c575f8415610d1a578287015190505b610d248582610ca9565b865550610d8b565b601f198416610d3a86610b27565b5f5b82811015610d6157848901518255600182019150602085019450602081019050610d3c565b86831015610d7e5784890151610d7a601f891682610c8d565b8355505b6001600288020188555050505b505050505050565b5f60c082019050610da65f8301896104ef565b8181036020830152610db881886107b3565b90508181036040830152610dcc81876107b3565b90508181036060830152610de081866107b3565b9050610def60808301856104ef565b610dfc60a083018461081b565b97965050505050505056fea2646970667358221220549d74f0f1fef693db04cd300e12675333840262eaf43d3baedcb2fc6ab1c02664736f6c63430008150033",
  "immutableReferences": {},
  "source": "// SPDX-License-Identifier: MIT\r\npragma solidity ^0.8.0;\r\n\r\ncontract DecentralizedStorage {\r\n    struct File {\r\n        string hash;\r\n        string fileName;\r\n        string fileType;\r\n        uint256 fileSize;\r\n        address uploader;\r\n    }\r\n\r\n    mapping(uint256 => File) public files;\r\n    uint256 public fileCount;\r\n\r\n    event FileUploaded(\r\n        uint256 fileId,\r\n        string hash,\r\n        string fileName,\r\n        string fileType,\r\n        uint256 fileSize,\r\n        address uploader\r\n    );\r\n\r\n    function uploadFile(\r\n        string memory _hash,\r\n        string memory _fileName,\r\n        string memory _fileType,\r\n        uint256 _fileSize\r\n    ) public {\r\n        require(bytes(_hash).length > 0, \"File hash is required\");\r\n        require(bytes(_fileName).length > 0, \"File name is required\");\r\n        require(bytes(_fileType).length > 0, \"File type is required\");\r\n        require(_fileSize > 0, \"File size should be greater than zero\");\r\n\r\n        fileCount++;\r\n        files[fileCount] = File(_hash, _fileName, _fileType, _fileSize, msg.sender);\r\n\r\n        emit FileUploaded(fileCount, _hash, _fileName, _fileType, _fileSize, msg.sender);\r\n    }\r\n}\r\n\r\n",
  "sourcePath": "C:\\Users\\shrey\\Desktop\\BlockDrive\\contracts\\decentralStore.sol",
  "compiler": {
    "name": "solc",
    "version": "0.8.21+commit.d9974bed.Emscripten.clang"
  },
  "schemaVersion": "3.4.16",
  "updatedAt": "2024-05-19T08:54:54.920Z",
  "devdoc": {
    "kind": "dev",
    "methods": {},
    "version": 1
  },
  "userdoc": {
    "kind": "user",
    "methods": {},
    "version": 1
  }
}